{
  "transactions": [
    {
      "hash": "0x1e97ca56ad7f7227ad9c293f9dd2411506aab71d6ae2b2c83fc49a290e05b735",
      "transactionType": "CALL",
      "contractName": null,
      "contractAddress": "0x87d00066cf131ff54b72b134a217d5401e5392b6",
      "function": "applyChainUpdates(uint64[],(uint64,bytes[],bytes,(bool,uint128,uint128),(bool,uint128,uint128))[])",
      "arguments": [
        "[]",
        "[(5009297550715157269, [0x000000000000000000000000bc1324f4fab8e63bf33e5117bb887671b378bff3], 0x000000000000000000000000d9a442856c234a39a81a089c06451ebaa4306a72, (false, 0, 0), (false, 0, 0))]"
      ],
      "transaction": {
        "from": "0x1bfaec64abfddcc8c5da134880d1e71f3e03689e",
        "to": "0x87d00066cf131ff54b72b134a217d5401e5392b6",
        "gas": "0x6b8e5",
        "value": "0x0",
        "input": "0xe8a1da170000000000000000000000000000000000000000000000000000000000000040000000000000000000000000000000000000000000000000000000000000006000000000000000000000000000000000000000000000000000000000000000000000000000000000000000000000000000000000000000000000000000000001000000000000000000000000000000000000000000000000000000000000002000000000000000000000000000000000000000000000000045849994fc9c7b15000000000000000000000000000000000000000000000000000000000000012000000000000000000000000000000000000000000000000000000000000001a0000000000000000000000000000000000000000000000000000000000000000000000000000000000000000000000000000000000000000000000000000000000000000000000000000000000000000000000000000000000000000000000000000000000000000000000000000000000000000000000000000000000000000000000000000000000000000000000000000000000000000000000000000000000000000000000000000000000000000000000000000000000000000000000000000000000000000000000000000000000000000000000000000000000000000100000000000000000000000000000000000000000000000000000000000000200000000000000000000000000000000000000000000000000000000000000020000000000000000000000000bc1324f4fab8e63bf33e5117bb887671b378bff30000000000000000000000000000000000000000000000000000000000000020000000000000000000000000d9a442856c234a39a81a089c06451ebaa4306a72",
        "nonce": "0x6",
        "chainId": "0xa4b1"
      },
      "additionalContracts": [],
      "isFixedGasLimit": false
    }
  ],
  "receipts": [
    {
      "status": "0x1",
      "cumulativeGasUsed": "0xdfb35",
      "logs": [
        {
          "address": "0x87d00066cf131ff54b72b134a217d5401e5392b6",
          "topics": [
            "0x7d628c9a1796743d365ab521a8b2a4686e419b3269919dc9145ea2ce853b54ea",
            "0x00000000000000000000000000000000000000000000000045849994fc9c7b15"
          ],
          "data": "0x00000000000000000000000000000000000000000000000000000000000000200000000000000000000000000000000000000000000000000000000000000020000000000000000000000000bc1324f4fab8e63bf33e5117bb887671b378bff3",
          "blockHash": "0xc06ed1ad2d2630493027a96f6d691a00324382ea0b33ab80a4699b3c7a276759",
          "blockNumber": "0x12624b34",
          "transactionHash": "0x1e97ca56ad7f7227ad9c293f9dd2411506aab71d6ae2b2c83fc49a290e05b735",
          "transactionIndex": "0x6",
          "logIndex": "0xf",
          "removed": false
        },
        {
          "address": "0x87d00066cf131ff54b72b134a217d5401e5392b6",
          "topics": [
            "0x8d340f17e19058004c20453540862a9c62778504476f6756755cb33bcd6c38c2"
          ],
          "data": "0x00000000000000000000000000000000000000000000000045849994fc9c7b1500000000000000000000000000000000000000000000000000000000000001000000000000000000000000000000000000000000000000000000000000000000000000000000000000000000000000000000000000000000000000000000000000000000000000000000000000000000000000000000000000000000000000000000000000000000000000000000000000000000000000000000000000000000000000000000000000000000000000000000000000000000000000000000000000000000000000000000000000000000000000000000000000000000000000000000000000000000000000000000000000000000000000000000000000000020000000000000000000000000d9a442856c234a39a81a089c06451ebaa4306a72",
          "blockHash": "0xc06ed1ad2d2630493027a96f6d691a00324382ea0b33ab80a4699b3c7a276759",
          "blockNumber": "0x12624b34",
          "transactionHash": "0x1e97ca56ad7f7227ad9c293f9dd2411506aab71d6ae2b2c83fc49a290e05b735",
          "transactionIndex": "0x6",
          "logIndex": "0x10",
          "removed": false
        }
      ],
      "logsBloom": "0x000000000000004000000000000000000000000000000000000002000000000000000000000000000000000000000000000000000000000000040000000000040000040000000000000000004000c0000000000000000000000000000000000000000000000000000000000000000000000000000000000000000000000000400000000000000000000000000000000000000000000000000000000000000000000000000000000000000000000000000002000000000000000000000000000000000000000000000000000000000000000000000000000000000000000000000000000000000000000000000000000000000000008000000100000000000000",
      "type": "0x2",
      "transactionHash": "0x1e97ca56ad7f7227ad9c293f9dd2411506aab71d6ae2b2c83fc49a290e05b735",
      "transactionIndex": "0x6",
      "blockHash": "0xc06ed1ad2d2630493027a96f6d691a00324382ea0b33ab80a4699b3c7a276759",
      "blockNumber": "0x12624b34",
      "gasUsed": "0x503b6",
      "effectiveGasPrice": "0xf9939a0",
      "blobGasUsed": "0x0",
      "from": "0x1bfaec64abfddcc8c5da134880d1e71f3e03689e",
      "to": "0x87d00066cf131ff54b72b134a217d5401e5392b6",
      "contractAddress": null,
      "gasUsedForL1": "0x49fa",
      "l1BlockNumber": "0x14e1aa6"
    }
  ],
  "libraries": [],
  "pending": [],
  "returns": {},
  "timestamp": 1740154565,
  "chain": 42161,
  "commit": "48a1211"
}