{
  "transactions": [
    {
      "hash": "0xc78d5a5789f97b31b29581555e798177793d0c990089bafeeaa81875ff35d474",
      "transactionType": "CALL",
      "contractName": "TokenAdminRegistry",
      "contractAddress": "0x0944c3fb1db7d165336569221995b31cbe6c8a55",
      "function": "acceptAdminRole(address)",
      "arguments": [
        "0x417b0Ff8358Eb72867Da92225CaB99BCD5e6F205"
      ],
      "transaction": {
        "from": "0x1bfaec64abfddcc8c5da134880d1e71f3e03689e",
        "to": "0x0944c3fb1db7d165336569221995b31cbe6c8a55",
        "gas": "0x10611",
        "value": "0x0",
        "input": "0x156194da000000000000000000000000417b0ff8358eb72867da92225cab99bcd5e6f205",
        "nonce": "0x6",
        "chainId": "0x138de"
      },
      "additionalContracts": [],
      "isFixedGasLimit": false
    }
  ],
  "receipts": [
    {
      "status": "0x1",
      "cumulativeGasUsed": "0x5e3d0a",
      "logs": [
        {
          "address": "0x0944c3fb1db7d165336569221995b31cbe6c8a55",
          "topics": [
            "0x399b55200f7f639a63d76efe3dcfa9156ce367058d6b673041b84a628885f5a7",
            "0x000000000000000000000000417b0ff8358eb72867da92225cab99bcd5e6f205",
            "0x0000000000000000000000001bfaec64abfddcc8c5da134880d1e71f3e03689e"
          ],
          "data": "0x",
          "blockHash": "0x415ad1f85390bf787291a8774402d3b44a0d23b657753b5db6211f7cac00b8fd",
          "blockNumber": "0x2b67da",
          "blockTimestamp": "0x67e39091",
          "transactionHash": "0xc78d5a5789f97b31b29581555e798177793d0c990089bafeeaa81875ff35d474",
          "transactionIndex": "0x9",
          "logIndex": "0x50",
          "removed": false
        }
      ],
      "logsBloom": "0x00000000000000000000000000000000000000000004001020000000000000000000000000000000000000000000000000000000000000000000000000000000000000000000000000000000000800000000000000000000000000000000000000000000000000000000000000000000000000000000100000200000000000000000000000000000000400000000000000000000000000000040000000000000000000000000000000000000000000080000000000000010000000000000000000000000000004000000000000000000000000000000000000000000000000000000000000000000000000000000000000000000000400000000000000000000",
      "type": "0x2",
      "transactionHash": "0xc78d5a5789f97b31b29581555e798177793d0c990089bafeeaa81875ff35d474",
      "transactionIndex": "0x9",
      "blockHash": "0x415ad1f85390bf787291a8774402d3b44a0d23b657753b5db6211f7cac00b8fd",
      "blockNumber": "0x2b67da",
      "gasUsed": "0xb331",
      "effectiveGasPrice": "0x35371",
      "from": "0x1bfaec64abfddcc8c5da134880d1e71f3e03689e",
      "to": "0x0944c3fb1db7d165336569221995b31cbe6c8a55",
      "contractAddress": null
    }
  ],
  "libraries": [],
  "pending": [],
  "returns": {},
  "timestamp": 1742966936,
  "chain": 80094,
  "commit": "dd3fc31"
}