{
  "transactions": [
    {
      "hash": "0xd5d27f80f2febeab69ff3bdc7de056a0644dd386360b9f0f39369f2628e757df",
      "transactionType": "CALL",
      "contractName": null,
      "contractAddress": "0x8da0bae597ac15fb0924713b1e3c1f624474f3e4",
      "function": "applyChainUpdates(uint64[],(uint64,bytes[],bytes,(bool,uint128,uint128),(bool,uint128,uint128))[])",
      "arguments": [
        "[]",
        "[(5009297550715157269, [0x000000000000000000000000bc1324f4fab8e63bf33e5117bb887671b378bff3], 0x000000000000000000000000d9a442856c234a39a81a089c06451ebaa4306a72, (false, 0, 0), (false, 0, 0))]"
      ],
      "transaction": {
        "from": "0x1bfaec64abfddcc8c5da134880d1e71f3e03689e",
        "to": "0x8da0bae597ac15fb0924713b1e3c1f624474f3e4",
        "gas": "0x686f1",
        "value": "0x0",
        "input": "0xe8a1da170000000000000000000000000000000000000000000000000000000000000040000000000000000000000000000000000000000000000000000000000000006000000000000000000000000000000000000000000000000000000000000000000000000000000000000000000000000000000000000000000000000000000001000000000000000000000000000000000000000000000000000000000000002000000000000000000000000000000000000000000000000045849994fc9c7b15000000000000000000000000000000000000000000000000000000000000012000000000000000000000000000000000000000000000000000000000000001a0000000000000000000000000000000000000000000000000000000000000000000000000000000000000000000000000000000000000000000000000000000000000000000000000000000000000000000000000000000000000000000000000000000000000000000000000000000000000000000000000000000000000000000000000000000000000000000000000000000000000000000000000000000000000000000000000000000000000000000000000000000000000000000000000000000000000000000000000000000000000000000000000000000000000000100000000000000000000000000000000000000000000000000000000000000200000000000000000000000000000000000000000000000000000000000000020000000000000000000000000bc1324f4fab8e63bf33e5117bb887671b378bff30000000000000000000000000000000000000000000000000000000000000020000000000000000000000000d9a442856c234a39a81a089c06451ebaa4306a72",
        "nonce": "0x8",
        "chainId": "0x138de"
      },
      "additionalContracts": [],
      "isFixedGasLimit": false
    }
  ],
  "receipts": [
    {
      "status": "0x1",
      "cumulativeGasUsed": "0x1378c08",
      "logs": [
        {
          "address": "0x8da0bae597ac15fb0924713b1e3c1f624474f3e4",
          "topics": [
            "0x7d628c9a1796743d365ab521a8b2a4686e419b3269919dc9145ea2ce853b54ea",
            "0x00000000000000000000000000000000000000000000000045849994fc9c7b15"
          ],
          "data": "0x00000000000000000000000000000000000000000000000000000000000000200000000000000000000000000000000000000000000000000000000000000020000000000000000000000000bc1324f4fab8e63bf33e5117bb887671b378bff3",
          "blockHash": "0xaeb5cde4474522adc46ddea3e16ae0b85600b895c65e5efa5f2ec43835d689ca",
          "blockNumber": "0x2b681f",
          "blockTimestamp": "0x67e3911b",
          "transactionHash": "0xd5d27f80f2febeab69ff3bdc7de056a0644dd386360b9f0f39369f2628e757df",
          "transactionIndex": "0x2c",
          "logIndex": "0x89",
          "removed": false
        },
        {
          "address": "0x8da0bae597ac15fb0924713b1e3c1f624474f3e4",
          "topics": [
            "0x8d340f17e19058004c20453540862a9c62778504476f6756755cb33bcd6c38c2"
          ],
          "data": "0x00000000000000000000000000000000000000000000000045849994fc9c7b1500000000000000000000000000000000000000000000000000000000000001000000000000000000000000000000000000000000000000000000000000000000000000000000000000000000000000000000000000000000000000000000000000000000000000000000000000000000000000000000000000000000000000000000000000000000000000000000000000000000000000000000000000000000000000000000000000000000000000000000000000000000000000000000000000000000000000000000000000000000000000000000000000000000000000000000000000000000000000000000000000000000000000000000000000000020000000000000000000000000d9a442856c234a39a81a089c06451ebaa4306a72",
          "blockHash": "0xaeb5cde4474522adc46ddea3e16ae0b85600b895c65e5efa5f2ec43835d689ca",
          "blockNumber": "0x2b681f",
          "blockTimestamp": "0x67e3911b",
          "transactionHash": "0xd5d27f80f2febeab69ff3bdc7de056a0644dd386360b9f0f39369f2628e757df",
          "transactionIndex": "0x2c",
          "logIndex": "0x8a",
          "removed": false
        }
      ],
      "logsBloom": "0x00000000000000400000000000000000000000000000000000000200000000000000000000000000000000000000000000000000000000400004008000000004000000000000000000000000400040000000000000000000000000000000000000000000000000000000000000000000000000000000000000000000000000400000000000000000000000000000000000000000000000000000000000000000000000000000000000000000000000000000000000000000000000000000000000000000000000000000000000000000000000000000000000000000000000000000004000000000000000000000000000000000008000000100000000000000",
      "type": "0x2",
      "transactionHash": "0xd5d27f80f2febeab69ff3bdc7de056a0644dd386360b9f0f39369f2628e757df",
      "transactionIndex": "0x2c",
      "blockHash": "0xaeb5cde4474522adc46ddea3e16ae0b85600b895c65e5efa5f2ec43835d689ca",
      "blockNumber": "0x2b681f",
      "gasUsed": "0x4b9bc",
      "effectiveGasPrice": "0x74b36",
      "from": "0x1bfaec64abfddcc8c5da134880d1e71f3e03689e",
      "to": "0x8da0bae597ac15fb0924713b1e3c1f624474f3e4",
      "contractAddress": null
    }
  ],
  "libraries": [],
  "pending": [],
  "returns": {},
  "timestamp": 1742967070,
  "chain": 80094,
  "commit": "dd3fc31"
}